:100000000C942A001895000018950000189500001F
:10001000189500001895000018950000189500002C
:10002000189500001895000018950000189500001C
:10003000189500001895000018950000189500000C
:1000400018950000189500001895000018950000FC
:10005000189500008FE58DBFC8E3E0E24E2E84E0E6
:100060008EBFD4E0F4E05F2EA89584B7082E877F7A
:1000700084BF88E1992781BD91BDEEEFF3E0A0E652
:10008000B0E088278D933197E9F783E389B980E061
:1000900080BD88E18AB96624E6EBF1E00E94AC00FD
:1000A000A0E6B0E0EAE00E948D00A0E6B0E0E0EC5F
:1000B000F1E00E94C70011F40C946600E4ECF1E05A
:1000C0000E94AC000E94B3000C948300EAECF1E0C3
:1000D0000E94AC000E94B300E4EDF1E00E94AC008D
:1000E000A0E6B0E0EAE00E948D00E8EEF1E00E94B8
:1000F000AC00A0E6B0E00E94A6000E94B3000C9401
:1001000083000C944C00E0EFF1E00E94AC000E94F0
:10011000B300F894FFCFA8E0B4E012D08D3039F0EE
:10012000EE23D9F38D93EA9563FE20D0F6CF63FCDE
:1001300004C08DE01BD08AE019D088278C930895E5
:100140005F9BFECF8CB10895A8E0B4E08D91882329
:1001500011F00CD0FBCF08950E94C300802D11F048
:1001600005D0FACF08958DE001D08AE05D9BFECFE7
:100170008CB908953197F1F70895689462F808955D
:10018000E89462F80895C89531960020089568941F
:1001900001C0E894AF93BF938D9116F0919103C085
:1001A0000E94C300902D891718F011F48823A1F73D
:1001B000BF91AF910895456E74657220415652000B
:1001C000415652004552524F520057454C4C434FF6
:1001D0004D4500005768617420497320596F75724E
:1001E000204E616D653F000048454C4C4F2000009B
:0401F000454E440034
:00000001FF
